:0400000038EF3FF0A6
:107E3200000E936E8A908A928A948A82520E676E9C
:107E42002A0EE82EFED7672EFCD78A92520E676E54
:107E52002A0EE82EFED7672EFCD7410E616E000E69
:107E6200626EBBEC3FF034EF3FF000EF00F0B60E75
:107E7200F66E7E0EF76E000EF86E00EE80F010EEDB
:107E820060F00900F5CFEEFFE550E150FAE1160E81
:107E9200F66E7F0EF76E000EF86E00EE01F010EE39
:107EA20060F00900F5CFEEFFE550E150FAE1000184
:107EB20019EF3FF001000100010001000100010083
:107EC20000000000010001000100010001000100AA
:107ED2000100010001000100010001000100010098
:107EE2000100010001000100010001000100010088
:107EF2000100000001000100010001000100010079
:107F0200010001000000000000000000000000006D
:107F1200000001000000000000000000010000005D
:107F2200010001000000000000000000000001004C
:107F32000100010001000100010001000100000038
:107F4200000001000000000000000000000000002E
:107F52000000000001000100010001000100010019
:107F6200000000000000000000000000000000000F
:107F7200000000008A908A928A94000E666E000EBB
:107F8200656E000E666E000E656ED8906534D96E11
:107F92006634DA6E6150D9266250DA22DE04DE10CF
:107FA200D8A4D6EF3FF0D8EF3FF0DBEF3FF08A8066
:107FB200DCEF3FF08A908A84530EE82EFED700F061
:107FC2008A94530EE82EFED700F0654A662A66BEF2
:107FD200F4EF3FF0665009E1100E655CD8A0F4EFB3
:107FE2003FF0F6EF3FF0C6EF3FF08A82040E636E79
:0E7FF2003E0EE82EFED7632EFCD78A921200B8
:020000040020DA
:08000000FFFFFFFFFFFFFFFF00
:020000040030CA
:0E000000FF081F1EFF8385FF0FC00FE00F409B
:00000001FF
